{
  "_format": "hh-sol-artifact-1",
  "contractName": "Movie",
  "sourceName": "contracts/Movie.sol",
  "abi": [
    {
      "inputs": [
        {
          "internalType": "string",
          "name": "_movie",
          "type": "string"
        }
      ],
      "stateMutability": "nonpayable",
      "type": "constructor"
    },
    {
      "inputs": [],
      "name": "addMovie",
      "outputs": [],
      "stateMutability": "nonpayable",
      "type": "function"
    },
    {
      "inputs": [],
      "name": "getMovie",
      "outputs": [
        {
          "internalType": "uint256",
          "name": "",
          "type": "uint256"
        }
      ],
      "stateMutability": "view",
      "type": "function"
    }
  ],
  "bytecode": "0x6080604052600360015534801561001557600080fd5b506040516104733803806104738339818101604052810190610037919061015f565b806000908051906020019061004d929190610054565b50506102fb565b82805461006090610229565b90600052602060002090601f01602090048101928261008257600085556100c9565b82601f1061009b57805160ff19168380011785556100c9565b828001600101855582156100c9579182015b828111156100c85782518255916020019190600101906100ad565b5b5090506100d691906100da565b5090565b5b808211156100f35760008160009055506001016100db565b5090565b600061010a610105846101c5565b6101a0565b90508281526020810184848401111561012257600080fd5b61012d8482856101f6565b509392505050565b600082601f83011261014657600080fd5b81516101568482602086016100f7565b91505092915050565b60006020828403121561017157600080fd5b600082015167ffffffffffffffff81111561018b57600080fd5b61019784828501610135565b91505092915050565b60006101aa6101bb565b90506101b6828261025b565b919050565b6000604051905090565b600067ffffffffffffffff8211156101e0576101df6102bb565b5b6101e9826102ea565b9050602081019050919050565b60005b838110156102145780820151818401526020810190506101f9565b83811115610223576000848401525b50505050565b6000600282049050600182168061024157607f821691505b602082108114156102555761025461028c565b5b50919050565b610264826102ea565b810181811067ffffffffffffffff82111715610283576102826102bb565b5b80604052505050565b7f4e487b7100000000000000000000000000000000000000000000000000000000600052602260045260246000fd5b7f4e487b7100000000000000000000000000000000000000000000000000000000600052604160045260246000fd5b6000601f19601f8301169050919050565b6101698061030a6000396000f3fe608060405234801561001057600080fd5b50600436106100365760003560e01c80637b5f4eef1461003b57806387cb222014610059575b600080fd5b610043610063565b6040516100509190610096565b60405180910390f35b61006161006d565b005b6000600154905090565b60016000815480929190610080906100bb565b9190505550565b610090816100b1565b82525050565b60006020820190506100ab6000830184610087565b92915050565b6000819050919050565b60006100c6826100b1565b91507fffffffffffffffffffffffffffffffffffffffffffffffffffffffffffffffff8214156100f9576100f8610104565b5b600182019050919050565b7f4e487b7100000000000000000000000000000000000000000000000000000000600052601160045260246000fdfea2646970667358221220eba06e76b60cd53d60961d056df98e2fac96b434d12706279b63ce1c99def5c864736f6c63430008040033",
  "linkReferences": {},
  "deployedLinkReferences": {}
}